{
  "contractName": "OrderTracking",
  "abi": [
    {
      "anonymous": false,
      "inputs": [
        {
          "indexed": false,
          "internalType": "uint256",
          "name": "id",
          "type": "uint256"
        },
        {
          "indexed": false,
          "internalType": "address",
          "name": "owner",
          "type": "address"
        }
      ],
      "name": "OrderCreated",
      "type": "event"
    },
    {
      "anonymous": false,
      "inputs": [
        {
          "indexed": false,
          "internalType": "uint256",
          "name": "id",
          "type": "uint256"
        },
        {
          "indexed": false,
          "internalType": "address",
          "name": "from",
          "type": "address"
        },
        {
          "indexed": false,
          "internalType": "address",
          "name": "to",
          "type": "address"
        },
        {
          "indexed": false,
          "internalType": "string",
          "name": "status",
          "type": "string"
        }
      ],
      "name": "OwnershipTransferred",
      "type": "event"
    },
    {
      "inputs": [
        {
          "internalType": "address",
          "name": "",
          "type": "address"
        }
      ],
      "name": "addressToName",
      "outputs": [
        {
          "internalType": "string",
          "name": "",
          "type": "string"
        }
      ],
      "stateMutability": "view",
      "type": "function",
      "constant": true
    },
    {
      "inputs": [
        {
          "internalType": "uint256",
          "name": "",
          "type": "uint256"
        }
      ],
      "name": "orders",
      "outputs": [
        {
          "internalType": "uint256",
          "name": "id",
          "type": "uint256"
        },
        {
          "internalType": "address",
          "name": "currentOwner",
          "type": "address"
        },
        {
          "internalType": "string",
          "name": "status",
          "type": "string"
        }
      ],
      "stateMutability": "view",
      "type": "function",
      "constant": true
    },
    {
      "inputs": [
        {
          "internalType": "uint256",
          "name": "_orderId",
          "type": "uint256"
        }
      ],
      "name": "createOrder",
      "outputs": [],
      "stateMutability": "nonpayable",
      "type": "function"
    },
    {
      "inputs": [
        {
          "internalType": "uint256",
          "name": "_orderId",
          "type": "uint256"
        },
        {
          "internalType": "address",
          "name": "_newOwner",
          "type": "address"
        },
        {
          "internalType": "string",
          "name": "_status",
          "type": "string"
        }
      ],
      "name": "transferOwnership",
      "outputs": [],
      "stateMutability": "nonpayable",
      "type": "function"
    },
    {
      "inputs": [
        {
          "internalType": "uint256",
          "name": "_orderId",
          "type": "uint256"
        }
      ],
      "name": "getOrderHistory",
      "outputs": [
        {
          "components": [
            {
              "internalType": "address",
              "name": "owner",
              "type": "address"
            },
            {
              "internalType": "string",
              "name": "status",
              "type": "string"
            },
            {
              "internalType": "uint256",
              "name": "timestamp",
              "type": "uint256"
            }
          ],
          "internalType": "struct OrderTracking.History[]",
          "name": "",
          "type": "tuple[]"
        }
      ],
      "stateMutability": "view",
      "type": "function",
      "constant": true
    },
    {
      "inputs": [
        {
          "internalType": "uint256",
          "name": "_orderId",
          "type": "uint256"
        }
      ],
      "name": "getOrderDetails",
      "outputs": [
        {
          "components": [
            {
              "internalType": "uint256",
              "name": "id",
              "type": "uint256"
            },
            {
              "internalType": "address",
              "name": "currentOwner",
              "type": "address"
            },
            {
              "internalType": "string",
              "name": "status",
              "type": "string"
            },
            {
              "components": [
                {
                  "internalType": "address",
                  "name": "owner",
                  "type": "address"
                },
                {
                  "internalType": "string",
                  "name": "status",
                  "type": "string"
                },
                {
                  "internalType": "uint256",
                  "name": "timestamp",
                  "type": "uint256"
                }
              ],
              "internalType": "struct OrderTracking.History[]",
              "name": "ownershipHistory",
              "type": "tuple[]"
            }
          ],
          "internalType": "struct OrderTracking.Order",
          "name": "",
          "type": "tuple"
        }
      ],
      "stateMutability": "view",
      "type": "function",
      "constant": true
    },
    {
      "inputs": [
        {
          "internalType": "string",
          "name": "_name",
          "type": "string"
        }
      ],
      "name": "setName",
      "outputs": [],
      "stateMutability": "nonpayable",
      "type": "function"
    },
    {
      "inputs": [
        {
          "internalType": "address",
          "name": "_addr",
          "type": "address"
        }
      ],
      "name": "getName",
      "outputs": [
        {
          "internalType": "string",
          "name": "",
          "type": "string"
        }
      ],
      "stateMutability": "view",
      "type": "function",
      "constant": true
    },
    {
      "inputs": [
        {
          "internalType": "uint256",
          "name": "_orderId",
          "type": "uint256"
        }
      ],
      "name": "getOrderHistoryWithNames",
      "outputs": [
        {
          "internalType": "string[]",
          "name": "",
          "type": "string[]"
        }
      ],
      "stateMutability": "view",
      "type": "function",
      "constant": true
    }
  ],
  "bytecode": "0x608060405234801561001057600080fd5b5061265a806100206000396000f3fe608060405234801561001057600080fd5b50600436106100935760003560e01c8063c47f002711610066578063c47f002714610146578063e2a04b6214610162578063ec7dd7bb14610192578063f879cda4146101c2578063f8ad8cd7146101f257610093565b80635fb97376146100985780635fd4b08a146100c857806371625641146100f8578063a85c38ef14610114575b600080fd5b6100b260048036038101906100ad91906118e5565b61020e565b6040516100bf9190611e24565b60405180910390f35b6100e260048036038101906100dd919061187b565b6103cd565b6040516100ef9190611e46565b60405180910390f35b610112600480360381019061010d919061190e565b61049e565b005b61012e600480360381019061012991906118e5565b61071d565b60405161013d93929190611f5f565b60405180910390f35b610160600480360381019061015b91906118a4565b6107ef565b005b61017c6004803603810190610177919061187b565b610846565b6040516101899190611e46565b60405180910390f35b6101ac60048036038101906101a791906118e5565b6108e6565b6040516101b99190611ec8565b60405180910390f35b6101dc60048036038101906101d791906118e5565b610bae565b6040516101e99190611e02565b60405180910390f35b61020c600480360381019061020791906118e5565b611070565b005b60606000806000848152602001908152602001600020600001541415610269576040517f08c379a000000000000000000000000000000000000000000000000000000000815260040161026090611e68565b60405180910390fd5b600080838152602001908152602001600020600301805480602002602001604051908101604052809291908181526020016000905b828210156103c257838290600052602060002090600302016040518060600160405290816000820160009054906101000a900473ffffffffffffffffffffffffffffffffffffffff1673ffffffffffffffffffffffffffffffffffffffff1673ffffffffffffffffffffffffffffffffffffffff168152602001600182018054610327906124a1565b80601f0160208091040260200160405190810160405280929190818152602001828054610353906124a1565b80156103a05780601f10610375576101008083540402835291602001916103a0565b820191906000526020600020905b81548152906001019060200180831161038357829003601f168201915b505050505081526020016002820154815250508152602001906001019061029e565b505050509050919050565b6060600160008373ffffffffffffffffffffffffffffffffffffffff1673ffffffffffffffffffffffffffffffffffffffff1681526020019081526020016000208054610419906124a1565b80601f0160208091040260200160405190810160405280929190818152602001828054610445906124a1565b80156104925780601f1061046757610100808354040283529160200191610492565b820191906000526020600020905b81548152906001019060200180831161047557829003601f168201915b50505050509050919050565b60008060008581526020019081526020016000206000015414156104f7576040517f08c379a00000000000000000000000000000000000000000000000000000000081526004016104ee90611e68565b60405180910390fd5b3373ffffffffffffffffffffffffffffffffffffffff1660008085815260200190815260200160002060010160009054906101000a900473ffffffffffffffffffffffffffffffffffffffff1673ffffffffffffffffffffffffffffffffffffffff161461059a576040517f08c379a000000000000000000000000000000000000000000000000000000000815260040161059190611ea8565b60405180910390fd5b60008060008581526020019081526020016000209050828160010160006101000a81548173ffffffffffffffffffffffffffffffffffffffff021916908373ffffffffffffffffffffffffffffffffffffffff1602179055508181600201908051906020019061060b929190611708565b508060030160405180606001604052808573ffffffffffffffffffffffffffffffffffffffff16815260200184815260200142815250908060018154018082558091505060019003906000526020600020906003020160009091909190915060008201518160000160006101000a81548173ffffffffffffffffffffffffffffffffffffffff021916908373ffffffffffffffffffffffffffffffffffffffff16021790555060208201518160010190805190602001906106cd929190611708565b506040820151816002015550507fc6f76974206718b625c9faba8b5ae1931f1e7a6620c23458a74554aeffef13608433858560405161070f9493929190611f13565b60405180910390a150505050565b60006020528060005260406000206000915090508060000154908060010160009054906101000a900473ffffffffffffffffffffffffffffffffffffffff169080600201805461076c906124a1565b80601f0160208091040260200160405190810160405280929190818152602001828054610798906124a1565b80156107e55780601f106107ba576101008083540402835291602001916107e5565b820191906000526020600020905b8154815290600101906020018083116107c857829003601f168201915b5050505050905083565b80600160003373ffffffffffffffffffffffffffffffffffffffff1673ffffffffffffffffffffffffffffffffffffffff1681526020019081526020016000209080519060200190610842929190611708565b5050565b60016020528060005260406000206000915090508054610865906124a1565b80601f0160208091040260200160405190810160405280929190818152602001828054610891906124a1565b80156108de5780601f106108b3576101008083540402835291602001916108de565b820191906000526020600020905b8154815290600101906020018083116108c157829003601f168201915b505050505081565b6108ee61178e565b6000806000848152602001908152602001600020600001541415610947576040517f08c379a000000000000000000000000000000000000000000000000000000000815260040161093e90611e68565b60405180910390fd5b600080838152602001908152602001600020604051806080016040529081600082015481526020016001820160009054906101000a900473ffffffffffffffffffffffffffffffffffffffff1673ffffffffffffffffffffffffffffffffffffffff1673ffffffffffffffffffffffffffffffffffffffff1681526020016002820180546109d4906124a1565b80601f0160208091040260200160405190810160405280929190818152602001828054610a00906124a1565b8015610a4d5780601f10610a2257610100808354040283529160200191610a4d565b820191906000526020600020905b815481529060010190602001808311610a3057829003601f168201915b5050505050815260200160038201805480602002602001604051908101604052809291908181526020016000905b82821015610b9f57838290600052602060002090600302016040518060600160405290816000820160009054906101000a900473ffffffffffffffffffffffffffffffffffffffff1673ffffffffffffffffffffffffffffffffffffffff1673ffffffffffffffffffffffffffffffffffffffff168152602001600182018054610b04906124a1565b80601f0160208091040260200160405190810160405280929190818152602001828054610b30906124a1565b8015610b7d5780601f10610b5257610100808354040283529160200191610b7d565b820191906000526020600020905b815481529060010190602001808311610b6057829003601f168201915b5050505050815260200160028201548152505081526020019060010190610a7b565b50505050815250509050919050565b60606000806000848152602001908152602001600020600001541415610c09576040517f08c379a0000000000000000000000000000000000000000000000000000000008152600401610c0090611e68565b60405180910390fd5b6000806000848152602001908152602001600020600301805480602002602001604051908101604052809291908181526020016000905b82821015610d6457838290600052602060002090600302016040518060600160405290816000820160009054906101000a900473ffffffffffffffffffffffffffffffffffffffff1673ffffffffffffffffffffffffffffffffffffffff1673ffffffffffffffffffffffffffffffffffffffff168152602001600182018054610cc9906124a1565b80601f0160208091040260200160405190810160405280929190818152602001828054610cf5906124a1565b8015610d425780601f10610d1757610100808354040283529160200191610d42565b820191906000526020600020905b815481529060010190602001808311610d2557829003601f168201915b5050505050815260200160028201548152505081526020019060010190610c40565b5050505090506000815167ffffffffffffffff811115610dad577f4e487b7100000000000000000000000000000000000000000000000000000000600052604160045260246000fd5b604051908082528060200260200182016040528015610de057816020015b6060815260200190600190039081610dcb5790505b50905060005b825181101561106557600060016000858481518110610e2e577f4e487b7100000000000000000000000000000000000000000000000000000000600052603260045260246000fd5b60200260200101516000015173ffffffffffffffffffffffffffffffffffffffff1673ffffffffffffffffffffffffffffffffffffffff1681526020019081526020016000208054610e7f906124a1565b80601f0160208091040260200160405190810160405280929190818152602001828054610eab906124a1565b8015610ef85780601f10610ecd57610100808354040283529160200191610ef8565b820191906000526020600020905b815481529060010190602001808311610edb57829003601f168201915b50505050509050600081511415610f5957610f56848381518110610f45577f4e487b7100000000000000000000000000000000000000000000000000000000600052603260045260246000fd5b6020026020010151600001516112b8565b90505b80848381518110610f93577f4e487b7100000000000000000000000000000000000000000000000000000000600052603260045260246000fd5b602002602001015160200151610fec868581518110610fdb577f4e487b7100000000000000000000000000000000000000000000000000000000600052603260045260246000fd5b6020026020010151604001516114ed565b604051602001610ffe93929190611dbb565b604051602081830303815290604052838381518110611046577f4e487b7100000000000000000000000000000000000000000000000000000000600052603260045260246000fd5b602002602001018190525050808061105d906124d3565b915050610de6565b508092505050919050565b600080600083815260200190815260200160002060000154146110c8576040517f08c379a00000000000000000000000000000000000000000000000000000000081526004016110bf90611e88565b60405180910390fd5b60008060008381526020019081526020016000209050818160000181905550338160010160006101000a81548173ffffffffffffffffffffffffffffffffffffffff021916908373ffffffffffffffffffffffffffffffffffffffff1602179055506040518060400160405280600781526020017f4372656174656400000000000000000000000000000000000000000000000000815250816002019080519060200190611177929190611708565b508060030160405180606001604052803373ffffffffffffffffffffffffffffffffffffffff1681526020016040518060400160405280600781526020017f4372656174656400000000000000000000000000000000000000000000000000815250815260200142815250908060018154018082558091505060019003906000526020600020906003020160009091909190915060008201518160000160006101000a81548173ffffffffffffffffffffffffffffffffffffffff021916908373ffffffffffffffffffffffffffffffffffffffff160217905550602082015181600101908051906020019061126e929190611708565b506040820151816002015550507f4ceaea0569072c9203c8c195ffccdbca9851b9d0410f577878a6792f12ec9b5282336040516112ac929190611eea565b60405180910390a15050565b60606000602867ffffffffffffffff8111156112fd577f4e487b7100000000000000000000000000000000000000000000000000000000600052604160045260246000fd5b6040519080825280601f01601f19166020018201604052801561132f5781602001600182028036833780820191505090505b50905060005b60148110156114e357600081601361134d91906123ae565b60086113599190612319565b600261136591906121fb565b8573ffffffffffffffffffffffffffffffffffffffff166113869190612146565b60f81b9050600060108260f81c61139d9190612177565b60f81b905060008160f81c60106113b49190612373565b8360f81c6113c291906123e2565b60f81b90506113d0826116c2565b858560026113de9190612319565b81518110611415577f4e487b7100000000000000000000000000000000000000000000000000000000600052603260045260246000fd5b60200101907effffffffffffffffffffffffffffffffffffffffffffffffffffffffffffff1916908160001a90535061144d816116c2565b85600186600261145d9190612319565b61146791906120b9565b8151811061149e577f4e487b7100000000000000000000000000000000000000000000000000000000600052603260045260246000fd5b60200101907effffffffffffffffffffffffffffffffffffffffffffffffffffffffffffff1916908160001a90535050505080806114db906124d3565b915050611335565b5080915050919050565b60606000821415611535576040518060400160405280600181526020017f300000000000000000000000000000000000000000000000000000000000000081525090506116bd565b600082905060005b60008214611567578080611550906124d3565b915050600a826115609190612146565b915061153d565b60008167ffffffffffffffff8111156115a9577f4e487b7100000000000000000000000000000000000000000000000000000000600052604160045260246000fd5b6040519080825280601f01601f1916602001820160405280156115db5781602001600182028036833780820191505090505b50905060008290505b600086146116b5576001816115f991906123ae565b90506000600a808861160b9190612146565b6116159190612319565b8761162091906123ae565b603061162c919061210f565b905060008160f81b905080848481518110611670577f4e487b7100000000000000000000000000000000000000000000000000000000600052603260045260246000fd5b60200101907effffffffffffffffffffffffffffffffffffffffffffffffffffffffffffff1916908160001a905350600a886116ac9190612146565b975050506115e4565b819450505050505b919050565b6000600a8260f81c60ff1610156116ed5760308260f81c6116e3919061210f565b60f81b9050611703565b60578260f81c6116fd919061210f565b60f81b90505b919050565b828054611714906124a1565b90600052602060002090601f016020900481019282611736576000855561177d565b82601f1061174f57805160ff191683800117855561177d565b8280016001018555821561177d579182015b8281111561177c578251825591602001919060010190611761565b5b50905061178a91906117cc565b5090565b604051806080016040528060008152602001600073ffffffffffffffffffffffffffffffffffffffff16815260200160608152602001606081525090565b5b808211156117e55760008160009055506001016117cd565b5090565b60006117fc6117f784611fce565b611f9d565b90508281526020810184848401111561181457600080fd5b61181f84828561245f565b509392505050565b600081359050611836816125f6565b92915050565b600082601f83011261184d57600080fd5b813561185d8482602086016117e9565b91505092915050565b6000813590506118758161260d565b92915050565b60006020828403121561188d57600080fd5b600061189b84828501611827565b91505092915050565b6000602082840312156118b657600080fd5b600082013567ffffffffffffffff8111156118d057600080fd5b6118dc8482850161183c565b91505092915050565b6000602082840312156118f757600080fd5b600061190584828501611866565b91505092915050565b60008060006060848603121561192357600080fd5b600061193186828701611866565b935050602061194286828701611827565b925050604084013567ffffffffffffffff81111561195f57600080fd5b61196b8682870161183c565b9150509250925092565b60006119818383611b1a565b905092915050565b60006119958383611ce3565b905092915050565b6119a681612416565b82525050565b6119b581612416565b82525050565b60006119c68261201e565b6119d08185612059565b9350836020820285016119e285611ffe565b8060005b85811015611a1e57848403895281516119ff8582611975565b9450611a0a8361203f565b925060208a019950506001810190506119e6565b50829750879550505050505092915050565b6000611a3b82612029565b611a45818561206a565b935083602082028501611a578561200e565b8060005b85811015611a935784840389528151611a748582611989565b9450611a7f8361204c565b925060208a01995050600181019050611a5b565b50829750879550505050505092915050565b6000611ab082612029565b611aba818561207b565b935083602082028501611acc8561200e565b8060005b85811015611b085784840389528151611ae98582611989565b9450611af48361204c565b925060208a01995050600181019050611ad0565b50829750879550505050505092915050565b6000611b2582612034565b611b2f818561208c565b9350611b3f81856020860161246e565b611b48816125d8565b840191505092915050565b6000611b5e82612034565b611b68818561209d565b9350611b7881856020860161246e565b611b81816125d8565b840191505092915050565b6000611b9782612034565b611ba181856120ae565b9350611bb181856020860161246e565b80840191505092915050565b6000611bca6003836120ae565b91507f202d2000000000000000000000000000000000000000000000000000000000006000830152600382019050919050565b6000611c0a60148361209d565b91507f4f7264657220646f6573206e6f742065786973740000000000000000000000006000830152602082019050919050565b6000611c4a60178361209d565b91507f4f7264657220494420616c7265616479206578697374730000000000000000006000830152602082019050919050565b6000611c8a602d8361209d565b91507f4f6e6c79207468652063757272656e74206f776e65722063616e207472616e7360008301527f666572206f776e657273686970000000000000000000000000000000000000006020830152604082019050919050565b6000606083016000830151611cfb600086018261199d565b5060208301518482036020860152611d138282611b1a565b9150506040830151611d286040860182611d9d565b508091505092915050565b6000608083016000830151611d4b6000860182611d9d565b506020830151611d5e602086018261199d565b5060408301518482036040860152611d768282611b1a565b91505060608301518482036060860152611d908282611a30565b9150508091505092915050565b611da681612448565b82525050565b611db581612448565b82525050565b6000611dc78286611b8c565b9150611dd282611bbd565b9150611dde8285611b8c565b9150611de982611bbd565b9150611df58284611b8c565b9150819050949350505050565b60006020820190508181036000830152611e1c81846119bb565b905092915050565b60006020820190508181036000830152611e3e8184611aa5565b905092915050565b60006020820190508181036000830152611e608184611b53565b905092915050565b60006020820190508181036000830152611e8181611bfd565b9050919050565b60006020820190508181036000830152611ea181611c3d565b9050919050565b60006020820190508181036000830152611ec181611c7d565b9050919050565b60006020820190508181036000830152611ee28184611d33565b905092915050565b6000604082019050611eff6000830185611dac565b611f0c60208301846119ac565b9392505050565b6000608082019050611f286000830187611dac565b611f3560208301866119ac565b611f4260408301856119ac565b8181036060830152611f548184611b53565b905095945050505050565b6000606082019050611f746000830186611dac565b611f8160208301856119ac565b8181036040830152611f938184611b53565b9050949350505050565b6000604051905081810181811067ffffffffffffffff82111715611fc457611fc36125a9565b5b8060405250919050565b600067ffffffffffffffff821115611fe957611fe86125a9565b5b601f19601f8301169050602081019050919050565b6000819050602082019050919050565b6000819050602082019050919050565b600081519050919050565b600081519050919050565b600081519050919050565b6000602082019050919050565b6000602082019050919050565b600082825260208201905092915050565b600082825260208201905092915050565b600082825260208201905092915050565b600082825260208201905092915050565b600082825260208201905092915050565b600081905092915050565b60006120c482612448565b91506120cf83612448565b9250827fffffffffffffffffffffffffffffffffffffffffffffffffffffffffffffffff038211156121045761210361251c565b5b828201905092915050565b600061211a82612452565b915061212583612452565b92508260ff0382111561213b5761213a61251c565b5b828201905092915050565b600061215182612448565b915061215c83612448565b92508261216c5761216b61254b565b5b828204905092915050565b600061218282612452565b915061218d83612452565b92508261219d5761219c61254b565b5b828204905092915050565b6000808291508390505b60018511156121f2578086048111156121ce576121cd61251c565b5b60018516156121dd5780820291505b80810290506121eb856125e9565b94506121b2565b94509492505050565b600061220682612448565b915061221183612448565b925061223e7fffffffffffffffffffffffffffffffffffffffffffffffffffffffffffffffff8484612246565b905092915050565b6000826122565760019050612312565b816122645760009050612312565b816001811461227a5760028114612284576122b3565b6001915050612312565b60ff8411156122965761229561251c565b5b8360020a9150848211156122ad576122ac61251c565b5b50612312565b5060208310610133831016604e8410600b84101617156122e85782820a9050838111156122e3576122e261251c565b5b612312565b6122f584848460016121a8565b9250905081840481111561230c5761230b61251c565b5b81810290505b9392505050565b600061232482612448565b915061232f83612448565b9250817fffffffffffffffffffffffffffffffffffffffffffffffffffffffffffffffff04831182151516156123685761236761251c565b5b828202905092915050565b600061237e82612452565b915061238983612452565b92508160ff04831182151516156123a3576123a261251c565b5b828202905092915050565b60006123b982612448565b91506123c483612448565b9250828210156123d7576123d661251c565b5b828203905092915050565b60006123ed82612452565b91506123f883612452565b92508282101561240b5761240a61251c565b5b828203905092915050565b600061242182612428565b9050919050565b600073ffffffffffffffffffffffffffffffffffffffff82169050919050565b6000819050919050565b600060ff82169050919050565b82818337600083830152505050565b60005b8381101561248c578082015181840152602081019050612471565b8381111561249b576000848401525b50505050565b600060028204905060018216806124b957607f821691505b602082108114156124cd576124cc61257a565b5b50919050565b60006124de82612448565b91507fffffffffffffffffffffffffffffffffffffffffffffffffffffffffffffffff8214156125115761251061251c565b5b600182019050919050565b7f4e487b7100000000000000000000000000000000000000000000000000000000600052601160045260246000fd5b7f4e487b7100000000000000000000000000000000000000000000000000000000600052601260045260246000fd5b7f4e487b7100000000000000000000000000000000000000000000000000000000600052602260045260246000fd5b7f4e487b7100000000000000000000000000000000000000000000000000000000600052604160045260246000fd5b6000601f19601f8301169050919050565b60008160011c9050919050565b6125ff81612416565b811461260a57600080fd5b50565b61261681612448565b811461262157600080fd5b5056fea2646970667358221220dc778b5c9c89892fb49133598915ed0786b956e001299ec28d6e3b1f9180cf3d64736f6c63430008000033",
  "immutableReferences": {},
  "source": "// SPDX-License-Identifier: MIT\r\npragma solidity ^0.8.0;\r\n\r\ncontract OrderTracking {\r\n\r\n    struct Order {\r\n        uint id;\r\n        address currentOwner;\r\n        string status;\r\n        History[] ownershipHistory;\r\n    }\r\n\r\n    struct History {\r\n        address owner;\r\n        string status;\r\n        uint timestamp;\r\n    }\r\n\r\n    mapping(uint => Order) public orders;\r\n    mapping(address => string) public addressToName;\r\n\r\n    event OrderCreated(uint id, address owner);\r\n    event OwnershipTransferred(uint id, address from, address to, string status);\r\n\r\n    // Function to create a new order with an ID from the database\r\n    function createOrder(uint _orderId) public {\r\n        require(orders[_orderId].id == 0, \"Order ID already exists\");\r\n        \r\n        Order storage newOrder = orders[_orderId];\r\n        newOrder.id = _orderId;\r\n        newOrder.currentOwner = msg.sender;\r\n        newOrder.status = \"Created\";\r\n        newOrder.ownershipHistory.push(History(msg.sender, \"Created\", block.timestamp));\r\n\r\n        emit OrderCreated(_orderId, msg.sender);\r\n    }\r\n\r\n    // Function to transfer ownership of an order\r\n    function transferOwnership(uint _orderId, address _newOwner, string memory _status) public {\r\n        require(orders[_orderId].id != 0, \"Order does not exist\");\r\n        require(orders[_orderId].currentOwner == msg.sender, \"Only the current owner can transfer ownership\");\r\n        \r\n        Order storage order = orders[_orderId];\r\n        order.currentOwner = _newOwner;\r\n        order.status = _status;\r\n        order.ownershipHistory.push(History(_newOwner, _status, block.timestamp));\r\n\r\n        emit OwnershipTransferred(_orderId, msg.sender, _newOwner, _status);\r\n    }\r\n\r\n    // Function to retrieve the history of an order\r\n    function getOrderHistory(uint _orderId) public view returns (History[] memory) {\r\n        require(orders[_orderId].id != 0, \"Order does not exist\");\r\n        return orders[_orderId].ownershipHistory;\r\n    }\r\n\r\n    // Function to retrieve the details of an order\r\n    function getOrderDetails(uint _orderId) public view returns (Order memory) {\r\n        require(orders[_orderId].id != 0, \"Order does not exist\");\r\n        return orders[_orderId];\r\n    }\r\n\r\n    // Function to set the name for the caller's address\r\n    function setName(string memory _name) public {\r\n        addressToName[msg.sender] = _name;\r\n    }\r\n\r\n    // Function to get the name associated with an address\r\n    function getName(address _addr) public view returns (string memory) {\r\n        return addressToName[_addr];\r\n    }\r\n\r\n    // Function to get order history with names instead of addresses\r\n    function getOrderHistoryWithNames(uint _orderId) public view returns (string[] memory) {\r\n        require(orders[_orderId].id != 0, \"Order does not exist\");\r\n        \r\n        History[] memory history = orders[_orderId].ownershipHistory;\r\n        string[] memory historyWithNames = new string[](history.length);\r\n        \r\n        for (uint i = 0; i < history.length; i++) {\r\n            string memory ownerName = addressToName[history[i].owner];\r\n            if (bytes(ownerName).length == 0) {\r\n                ownerName = toAsciiString(history[i].owner);\r\n            }\r\n            historyWithNames[i] = string(abi.encodePacked(ownerName, \" - \", history[i].status, \" - \", uint2str(history[i].timestamp)));\r\n        }\r\n        \r\n        return historyWithNames;\r\n    }\r\n\r\n    // Helper function to convert uint to string\r\n    function uint2str(uint _i) internal pure returns (string memory _uintAsString) {\r\n        if (_i == 0) {\r\n            return \"0\";\r\n        }\r\n        uint j = _i;\r\n        uint len;\r\n        while (j != 0) {\r\n            len++;\r\n            j /= 10;\r\n        }\r\n        bytes memory bstr = new bytes(len);\r\n        uint k = len;\r\n        while (_i != 0) {\r\n            k = k-1;\r\n            uint8 temp = (48 + uint8(_i - _i / 10 * 10));\r\n            bytes1 b1 = bytes1(temp);\r\n            bstr[k] = b1;\r\n            _i /= 10;\r\n        }\r\n        return string(bstr);\r\n    }\r\n\r\n    // Helper function to convert address to string\r\n    function toAsciiString(address x) internal pure returns (string memory) {\r\n        bytes memory s = new bytes(40);\r\n        for (uint i = 0; i < 20; i++) {\r\n            bytes1 b = bytes1(uint8(uint(uint160(x)) / (2**(8*(19 - i)))));\r\n            bytes1 hi = bytes1(uint8(b) / 16);\r\n            bytes1 lo = bytes1(uint8(b) - 16 * uint8(hi));\r\n            s[2*i] = char(hi);\r\n            s[2*i+1] = char(lo);\r\n        }\r\n        return string(s);\r\n    }\r\n\r\n    // Helper function to convert byte to char\r\n    function char(bytes1 b) internal pure returns (bytes1 c) {\r\n        if (uint8(b) < 10) return bytes1(uint8(b) + 0x30);\r\n        else return bytes1(uint8(b) + 0x57);\r\n    }\r\n}\r\n",
  "sourcePath": "C:\\Users\\franc\\Desktop\\FinityEdge Projects\\scm-app\\supplychain\\smart_contracts\\contracts\\OrderTracking.sol",
  "compiler": {
    "name": "solc",
    "version": "0.8.0+commit.c7dfd78e.Emscripten.clang"
  },
  "schemaVersion": "3.4.16",
  "updatedAt": "2024-08-01T04:13:15.381Z",
  "networkType": "ethereum",
  "devdoc": {
    "kind": "dev",
    "methods": {},
    "version": 1
  },
  "userdoc": {
    "kind": "user",
    "methods": {},
    "version": 1
  }
}